0000150819VR07000003731                                                                                                                                                                                                                                                                                                                                                                                                                                                                                                                                                                                                                                                                                                                                                                                                                           
5555150819          3766906203110050000000A3CK3Y0  NUNEZ HERNANDEZ/JOVAMEX MTY MEX         150819               D      A000338601Y400000000279500               8651157 4           MEX MTY MEX         65444               1004.00   00000000024700NMXN21082019 S070170019                                    307                 5207012151                                      00000000024700                                             MXN000000154400                                                                                                                                                                                                                                                                                                                                                                                     
5555150819          3766906203110050000000P8LFTZ0  TORRES ROBLEDO/EDMUNMTY SJD MTY         150819               D      A000338616VB00000000481100               8651157 4           MTY SJD MTY         75634               835.00    00000000054800NMXN02092019 S070170019                                    307                 5209010426                                      00000000054800                                             MXN000000342800                                                                                                                                                                                                                                                                                                                                                                                     
5555150819          3766906203110050000000QBTP6N0  FERNANDEZ RODRIGUEZ/MTY SJD MTY         150819               D      A000338609VB00000000481100               8651157 4           MTY SJD MTY         72311               835.00    00000000054800NMXN02092019 S070170019                                    307                 5209010423                                      00000000054800                                             MXN000000342800                                                                                                                                                                                                                                                                                                                                                                                     
5555150819          3766891312010020000000EH2SQB0  NUNEZ/OSCAR         HMO GDL HMO         150819               D      A000104549Y400000000459100               8651157 4           HMO GDL HMO         1251                784.00    00000000052600NMXN18082019 S070170019                                    307                 201BL                                           00000000052600                                             MXN000000328100                                                                                                                                                                                                                                                                                                                                                                                     
5555150819          3766906203110050000000LDFK2H0  LOPEZ SAUCEDA/ZULY MMTY SJD MTY         150819               D      A000338604VB00000000481100               8651157 4           MTY SJD MTY         74371               835.00    00000000054800NMXN02092019 S070170019                                    307                 5209010421                                      00000000054800                                             MXN000000342800                                                                                                                                                                                                                                                                                                                                                                                     
5555150819          3766906203110050000000ME789U0  TOLEDO NAVARRO/LUZ EMTY SJD MTY         150819               D      A000338605VB00000000481100               8651157 4           MTY SJD MTY         62370               835.00    00000000054800NMXN02092019 S070170019                                    307                 5209010441                                      00000000054800                                             MXN000000342800                                                                                                                                                                                                                                                                                                                                                                                     
5555150819          3766906203110050000000KCJRSQ0  GOMEZ OLIVARES/KARLAGDL MEX GDL         150819               D      A000338600Y400000000317300               8651157 4           GDL MEX GDL         74836               893.00    00000000031500NMXN20082019 S070170019                                    307                 5216400001                                      00000000031500                                             MXN000000196500                                                                                                                                                                                                                                                                                                                                                                                     
5555150819          3766906203110050000000EB5I8N0  ROSALES LEMUS/JORGE MTY SJD MTY         150819               D      A000338615VB00000000481100               8651157 4           MTY SJD MTY         62370               835.00    00000000054800NMXN02092019 S070170019                                    307                 5209010441                                      00000000054800                                             MXN000000342800                                                                                                                                                                                                                                                                                                                                                                                     
5555150819          3766891312010020000000Q62J7E0  LUGO/FELIX          HMO GDL             150819               D      A000104550Y400000000459100               8651157 4           HMO GDL             1210                784.00    00000000052600NMXN18082019 S070170019                                    307                 201BL                                           00000000052600                                             MXN000000328100                                                                                                                                                                                                                                                                                                                                                                                     
5555150819          3766906203110050000000OG6MSR0  DOMINGUEZ CONTRERAS/MTY SJD             150819               D      A000338617VB00000000250900               8651157 4           MTY SJD             73313               498.00    00000000027700NMXN02092019 S070170019                                    307                 5209010425                                      00000000027700                                             MXN000000173400                                                                                                                                                                                                                                                                                                                                                                                     
5555150819          3766906203110051110000VE71UQ0  DOMINGUEZ CONTRERAS/SJD MEX             150819               D      A0003386184O00000000145600               8651157 4           SJD MEX             73313               425.00    00000000016100NMXN06092019 S070170019                                    307                 5209010425                                      00000000016100                                             MXN000000087000                                                                                                                                                                                                                                                                                                                                                                                     
5555150819          3766906203110050000000I8S1TM0  CEBALLOS HERRERA/GILCUU GDL SJD MEX CUU 150819               D      A000338623Y400000000738800               8651157 4           CUU GDL SJD MEX CUU 72102               795.00    00000000091000NMXN02092019 S070170019                                    307                 5209010448                                      00000000091000                                             MXN000000568300                                                                                                                                                                                                                                                                                                                                                                                     
5555150819          3766906203110050000000N86I8J0  LANDEROS CONTRERAS/JHMO SJD             150819               D      A000338625VB00000000119700               8651157 4           HMO SJD             62370               450.00    00000000010300NMXN02092019 S070170019                                    307                 5209010441                                      00000000010300                                             MXN000000064400                                                                                                                                                                                                                                                                                                                                                                                     
5555150819          3766906203110050000000OFQL6B0  CALVO CALDERON/LUISACUL SJD CUL         150819               D      A000338626VB00000000236400               8651157 4           CUL SJD CUL         73863               902.00    00000000020200NMXN01092019 S070170019                                    307                 5209010444                                      00000000020200                                             MXN000000126000                                                                                                                                                                                                                                                                                                                                                                                     
5555150819          3766808250710090000000F4IBVV0  MACIAS DE LOS SANTOSMTY CUL MTY         150819               D      A000427313VB00000000253231               8651157 4           MTY CUL MTY                             1063.83   00000000020255NMXN19082019 S070170019                                    307                 3602ITAL                                        00000000020255                                             MXN000000126593                                                                                                                                                                                                                                                                                                                                                                                     
5555150819          3766906203110050000000CBSIRQ0  NARANJO PEREZ/LUIS RCUU GDL SJD MEX CUU 150819               D      A000338627Y400000000738800               8651157 4           CUU GDL SJD MEX CUU 62736               795.00    00000000091000NMXN02092019 S070170019                                    307                 5209010488                                      00000000091000                                             MXN000000568300                                                                                                                                                                                                                                                                                                                                                                                     
5555150819          3766915673710020000000G9UD9G0  SALAZAR BRAVO/ALFREDGDL TAP GDL         150819               D      A000427322Y400000000266200               8651157 4           GDL TAP GDL                             85.00     00000000090200NMXN29082019 S070170019                                    307                 CO00542                                         00000000090200                                             MXN000000167500                                                                                                                                                                                                                                                                                                                                                                                     
5555150819          3766906203110050000000D9K83G0  LOPEZ SAUCEDA/ZULY MTIJ MTY             150819               D      A000338648Y400000000117800               8651157 4           TIJ MTY             74371               000.00    00000000000000NMXN23082019 S070170019                                    307                 5209010421                                      00000000000000                                             MXN000000117800                                                                                                                                                                                                                                                                                                                                                                                     
5555150819          3766906203110050000000Y9MCHM0  CEBALLOS HERRERA/GILCUU TIJ CUU         150819               D      A000338650Y400000000421500               8651157 4           CUU TIJ CUU         72102               966.00    00000000010400NMXN20082019 S070170019                                    307                 5209010448                                      00000000010400                                             MXN000000314500                                                                                                                                                                                                                                                                                                                                                                                     
5555150819          3766906203110050000000S6DEVS0  RAMIREZ BOUCHAN/ALFRMTY CUU MTY         150819               D      A000338651VB00000000274600               8651157 4           MTY CUU MTY         74155               1552.00   00000000016500NMXN13082019 S070170019                                    307                 5207012607                                      00000000016500                                             MXN000000102900                                                                                                                                                                                                                                                                                                                                                                                     
5555150819          3766906203110050000000S7P1HC0  GARCIA APARICIO/DANIMEX MTY MEX         150819               D      A000338657Y400000000294700               8651157 4           MEX MTY MEX         71312               1004.00   00000000026800NMXN20082019 S070170019                                    307                 5207012711                                      00000000026800                                             MXN000000167500                                                                                                                                                                                                                                                                                                                                                                                     
5555150819          3766897820710010000000IFJ2MR0  NAVARRETE/FRANCISCO MEX TIJ MEX         150819               D      A000079095VB00000000469047               8651157 4           MEX TIJ MEX         5953                983.05    00000000020890NMXN15082019 S070170019                                    307                 319609                                          00000000020890                                             MXN000000349852                                                                                                                                                                                                                                                                                                                                                                                     
5555150819          3766935614810010000000G37KUF0  SANCHEZ BANUELOS/OSCHMO CJS CUU         150819               D      A000338675DW00000000290900               8651157 4           HMO CJS CUU         MX027456            541.00    00000000032700NMXN14082019 S070170019                                    307                 1721                                            00000000032700                                             MXN000000204100                                                                                                                                                                                                                                                                                                                                                                                     
5555150819          3766897820710010000000J6C1YC0  MORENO/LUCERO       MTY CUL             150819               D      A000079098VB00000000184211               8651157 4           MTY CUL             68617               497.93    00000000018540NMXN16082019 S070170019                                    307                 319722                                          00000000018540                                             MXN000000115878                                                                                                                                                                                                                                                                                                                                                                                     
5555150819          37669084966100811173800842370  CRUZ FLORES/ADRIANA MEX MTY MEX         150819               D      A0003386834O00000000441600               8651157 4           MEX MTY MEX                             1374.00   00000000045700NMXN23082019 S070170019                                    307                 S/CC                                            00000000045700                                             MXN000000258500                                                                                                                                                                                                                                                                                                                                                                                     
5555150819          3766908496610081110000E513XL0  DELATORRE/ERICK     MEX GDL MEX         150819               D      A0003386884O00000000610100               8651157 4           MEX GDL MEX                             1143.00   00000000071800NMXN15082019 S070170019                                    307                 S/CC                                            00000000071800                                             MXN000000424000                                                                                                                                                                                                                                                                                                                                                                                     
5555150819          3766899217310021110000JEYC3K0  NOGUEZ/JORGE        TIJ MEX             150819               D      A0003386924O00000000289581               8651157 4           TIJ MEX             NA                  698.99    00000000030301NMXN16082019 S070170019                                    307                 6703                                            00000000030301                                             MXN000000189381                                                                                                                                                                                                                                                                                                                                                                                     
5555150819          3766908496610081110000IGYYWH0  LOPEZ AYALA/ERICKA SGDL MEX GDL         150819               D      A0003386944O00000000444500               8651157 4           GDL MEX GDL                             1343.00   00000000046200NMXN19082019 S070170019                                    307                 S/CC                                            00000000046200                                             MXN000000264000                                                                                                                                                                                                                                                                                                                                                                                     
5555150819          3766906203110050000000HYE4GG0  AGUILAR SEGOVIA/LEONMEX GDL MEX         150819               D      A000338706Y400000000245200               8651157 4           MEX GDL MEX         5938                893.00    00000000021500NMXN20082019 S070170019                                    307                 5207012151                                      00000000021500                                             MXN000000134400                                                                                                                                                                                                                                                                                                                                                                                     
5555150819          3766906203110050000000O9NIPZ0  AGUILAR SEGOVIA/LEONMEX MTY MEX         150819               D      A000338707Y400000000263500               8651157 4           MEX MTY MEX         5938                1004.00   00000000022500NMXN28082019 S070170019                                    307                 5207012151                                      00000000022500                                             MXN000000140600                                                                                                                                                                                                                                                                                                                                                                                     
5555150819          3766893834410091110000K6VCGF0  LANCIEGO MARTINEZ/MAMEX MTY MEX         150819               D      A0003387314O00000000281602               8651157 4           MEX MTY MEX                             1274.00   00000000024994NMXN25092019 S070170019                                    307                 S/CC                                            00000000024994                                             MXN000000129208                                                                                                                                                                                                                                                                                                                                                                                     
5555150819          3766915673710020000000YYE98Z0  SALAS NAVARRO/JONATHSJD MTY MEX SJD     150819               D      A000427489VB00000000201698               8651157 4           SJD MTY MEX SJD                         336.40    00000000023180NMXN16082019 S070170019                                    307                 CO00570                                         00000000023180                                             MXN000000144878                                                                                                                                                                                                                                                                                                                                                                                     
5555150819          3766897820710010000000MBSGNA0  LECEA/FAUSTO        MTY CUL MTY         150819               D      A000079113VB00000000350581               8651157 4           MTY CUL MTY         24186               1063.83   00000000033683NMXN19082019 S070170019                                    307                 319896                                          00000000033683                                             MXN000000210515                                                                                                                                                                                                                                                                                                                                                                                     
5555150819          3766925045810000000000FDGPRX0  ORTIZ HERNANDEZ/BRENMTY CJS MTY         150819               D      A000338736VB00000000329600               8651157 4           MTY CJS MTY                             791.00    00000000038900NMXN20082019 S070170019                                    307                 S/CC                                            00000000038900                                             MXN000000211600                                                                                                                                                                                                                                                                                                                                                                                     
5555150819          3766915673710021110000YYE98Z0  SALAS NAVARRO/JONATHSJD MTY MEX SJD     150819               D      A0004274904O00000000255788               8651157 4           SJD MTY MEX SJD                         263.01    00000000065101NMXN16082019 S070170019                                    307                 CO00570                                         00000000065101                                             MXN000000164386                                                                                                                                                                                                                                                                                                                                                                                     
5555150819          3766983724010071110000P4K54L0  GONZALEZ AGUILAR/ROCMEX CUL MEX         150819               D      A0004275004O00000000345455               8651157 4           MEX CUL MEX                             1380.20   00000000028612NMXN13082019 S070170019                                    307                 S/CC                                            00000000028612                                             MXN000000178823                                                                                                                                                                                                                                                                                                                                                                                     
5555150819          3766983724010071110000GBHM3D0  AQUINO GONZALEZ/MARIMEX CUL MEX         150819               D      A0004275014O00000000345455               8651157 4           MEX CUL MEX                             1380.20   00000000028612NMXN13082019 S070170019                                    307                 S/CC                                            00000000028612                                             MXN000000178823                                                                                                                                                                                                                                                                                                                                                                                     
5555150819          3766983724010070000000UDBD6N0  FONSECA TELLEZ/ABDIAMEX CTM MEX         150819               D      A000427508Y400000000389800               8651157 4           MEX CTM MEX                             786.00    00000000018300NMXN13082019 S070170019                                    307                 S/CC                                            00000000018300                                             MXN000000292900                                                                                                                                                                                                                                                                                                                                                                                     
5555150819          3766892149010071110000OG78UX0  MACHUCA RAMOS/EDUARDGDL MTY GDL         150819               D      A0004275264O00000000461417               8651157 4           GDL MTY GDL                             1213.00   00000000050637NMXN15082019 S070170019                                    307                 420                                             00000000050637                                             MXN000000289480                                                                                                                                                                                                                                                                                                                                                                                     
5555150819          3766808250710091110000XFUL6X0  HERNANDEZ SANCHEZ/ELGDL TLC GDL         150819               D      A0004275274O00000000300800               8651157 4           GDL TLC GDL         EXT9999             682.00    00000000032083NMXN19082019 S070170019                                    307                 1301ASL1                                        00000000032083                                             MXN000000200517                                                                                                                                                                                                                                                                                                                                                                                     
5555150819          3766897434810001110000KCH58Q0  MARTINEZ/RAFAEL     MTY MEX MTY         150819               D      A0004275304O00000000530278               8651157 4           MTY MEX MTY         4121                1004.00   00000000059294NMXN14082019 S070170019                                    307                 63917-01                                        00000000059294                                             MXN000000370584                                                                                                                                                                                                                                                                                                                                                                                     
5555150819          3766907943610000000000R7Q6MC0  CONTRERAS/FRANCISCO MTY GDL MTY         150819               D      A000427532Y400000000440100               8651157 4           MTY GDL MTY         1111                1004.00   00000000046900NMXN14082019 S070170019                                    307                 63791-01                                        00000000046900                                             MXN000000292800                                                                                                                                                                                                                                                                                                                                                                                     
5555150819          3766907903610040000000KF268R0  BAILEY/LILIA        MTY CUU MTY         150819               D      A000427535VB00000000274582               8651157 4           MTY CUU MTY         6794                982.00    00000000024329NMXN20082019 S070170019                                    307                 64011-01                                        00000000024329                                             MXN000000152053                                                                                                                                                                                                                                                                                                                                                                                     
9999150819000043                                                                                                                                                                                                                                                                                                                                                                                                                                                                                                                                                                                                                                                                                                                                                                                                                                  