0000030120VR07000003941                                                                                                                                                                                                                                                                                                                                                                                                                                                                                                                                                                                                                                                                                                                                                                                                                           
5555030120          3766897820710011110000RB3DHJ0  HERNANDEZ/BENJAMIN  MEX VER MEX         030120               D      A0000842619K00000000464524               8651157 4           MEX VER MEX         57780               970.00    00000000050693NMXN02012020 S070170019                                    307                 338703                                          00000000050693                                             MXN000000316831                                                                                                                                                                                                                                                                                                                                                                                     
5555030120          3766897820710010000000LCSJ8K0  ECHANOVE/JORGE      MID MTY MID         030120               D      A0000842629K00000000500237               8651157 4           MID MTY MID         6109                963.28    00000000055711NMXN06012020 S070170019                                    307                 338758                                          00000000055711                                             MXN000000348198                                                                                                                                                                                                                                                                                                                                                                                     
5555030120          3766897820710010000000YBRPFG0  DURAN/LUZ ADRIANA   BJX SJD BJX         030120               D      A0000842659K00000000495900               8651157 4           BJX SJD BJX         149560              732.00    00000000058300NMXN06012020 S070170019                                    307                 F338726                                         00000000058300                                             MXN000000364400                                                                                                                                                                                                                                                                                                                                                                                     
5555030120          3766897820710010000000RBG7XW0  NAVA/MARIA BERENICE MEX MTY MEX         030120               D      A0000842639K00000000248600               8651157 4           MEX MTY MEX         131387              1011.00   00000000020400NMXN22012020 S070170019                                    307                 338156                                          00000000020400                                             MXN000000127100                                                                                                                                                                                                                                                                                                                                                                                     
5555030120          3766891312010020000000CE2QQH0  AVILA MELENDEZ/MARIOCUU GDL             030120               D      A0001115559K00000000121530               8651157 4           CUU GDL             1281                548.42    00000000009198NMXN05012020 S070170019                                    307                 17112                                           00000000009198                                             MXN000000057490                                                                                                                                                                                                                                                                                                                                                                                     
5555030120          3766935614810010000000TST2CZ0  SANCHEZ BANUELOS/OSCHMO CUU             030120               D      A0003531979K00000000379900               8651157 4           HMO CUU             MX027456#           561.00    00000000044700NMXN06012020 S070170019                                    307                 1721                                            00000000044700                                             MXN000000279100                                                                                                                                                                                                                                                                                                                                                                                     
5555030120          3766945678810040000000J9778G0  GAMAS/RICARDO       VSA MEX ZCL         030120               D      A0003532019K00000000439000               8651157 4           VSA MEX ZCL         NA                  449.00    00000000054400NMXN05012020 S070170019                                    307                 6314-XX                                         00000000054400                                             MXN000000339700                                                                                                                                                                                                                                                                                                                                                                                     
5555030120          3766891312010020000000U5ZP6Y0  AVILA MELENDEZ/MARIOGDL CUU             030120               D      A0001115509K00000000076700               8651157 4           GDL CUU             1281                395.00    00000000005200NMXN09012020 S070170019                                    307                 17112                                           00000000005200                                             MXN000000032000                                                                                                                                                                                                                                                                                                                                                                                     
5555030120          3766897820710011110000G6MP6S0  DAMIAN/ANGEL        MEX CUL MEX         030120               D      A0000842679K00000000437132               8651157 4           MEX CUL MEX         110275              1094.00   00000000045204NMXN03012020 S070170019                                    307                 338780                                          00000000045204                                             MXN000000282528                                                                                                                                                                                                                                                                                                                                                                                     
5555030120          3766897820710010000000REC3XK0  LOPEZ/JOSE FEDERICO MTY MEX             030120               D      A0000842689K00000000118896               8651157 4           MTY MEX             145673              509.97    00000000009365NMXN07012020 S070170019                                    307                 338925                                          00000000009365                                             MXN000000058534                                                                                                                                                                                                                                                                                                                                                                                     
5555030120          3766897820710010000000X58VMI0  LOZANO/ARIADNA LETICCUL MTY             030120               D      A0000842749K00000000153828               8651157 4           CUL MTY             108393              584.20    00000000013160NMXN14012020 S070170019                                    307                 338953                                          00000000013160                                             MXN000000082248                                                                                                                                                                                                                                                                                                                                                                                     
9999030120000011                                                                                                                                                                                                                                                                                                                                                                                                                                                                                                                                                                                                                                                                                                                                                                                                                                  